:1000000009C016C015C012C113C012C011C010C063
:100010000FC00EC011241FBECFE9CDBF20E0A0E667
:10002000B0E001C01D92A136B207E1F716D1C5C1FB
:10003000E7CF882331F098E29A95F1F700008150DC
:10004000F8CF0895CF93B89AC09885E0F2DFF8947E
:10005000B89881E0EEDFC6B3789484E0EADF8C2FB5
:100060008170CF9108959091600028E048E1382F89
:10007000392730FF03C0942730E801C030E096955F
:10008000932B8695215099F7909360000895CF9314
:1000900098E0C0E0C695F894B89A22E02A95F1F766
:1000A000282F217080FF07C0B89834E03A95F1F707
:1000B000B099C068789432E13A95F1F700002111C7
:1000C00005C0B898789424E02A95F1F78695915068
:1000D00009F78C2FC8DF8C2FCF910895EF92CF9323
:1000E000DF93B0DF81113BC08CECD1DF84E4CFDF44
:1000F000C0E08FEFCCDF811107C0CF3F99F184E6DC
:1001000098DFA895CF5FF5CF9DDF81112EC08CECD5
:10011000BEDF8EEBBCDF109260008FEFB8DFC82F20
:100120008FEFB5DFD0E0D82B67E0E62E8FEFAFDFA3
:10013000EA94E1F78091600081111AC0CE01D7FDE9
:1001400001969C0135952795D7FD2796CE0143E072
:10015000959587954A95E1F7820F931F0BC081E033
:1001600090E808C082E090E805C083E090E802C013
:1001700084E090E8DF91CF91EF900895009749F0E7
:10018000EFE2F5E73197F1F700C00000A89501977D
:10019000F5CF0895CF92DF92EF92CF93DF93E82EC1
:1001A000C62ED12CC42FD0E0C198EE2039F0C60164
:1001B000E5DFC19ACE01E2DFEA94F6CFDF91CF917D
:1001C000EF90DF90CF900895CF93DF93EC0197FFEE
:1001D0000AC04EE16AE081E0DDDFD195C195D10929
:1001E00087E090E0CBDFCE016AE070E0BFD0962FD1
:1001F000C82F4BE067E0892FCDDF8AE090E0BEDFBB
:1002000045E067E08C2FDF91CF91C4CFE199FECF1D
:100210008EBBE09A8DB30895E199FECFF8941CBA95
:100220008EBB6DBBE29AE19A789408951F920F926B
:100230000FB60F9211248F9381E08F0DF82E82312B
:1002400031F4F12C802F002311F08150082F8F9171
:100250000F900FBE0F901F90189580E886BD83E029
:1002600086BD85B5816085BD8AE387BB84E088BB98
:1002700098E191BD9FE091BD90E295BF83BF82E080
:1002800089BF789483E0C2DF8F3F79F468E080E033
:10029000C3DF69E081E0C0DF66EF82E0BDDF6AE0D6
:1002A00083E0BADF6CE384E0B7DFFAE0CF2ED12C35
:1002B000A895011159C012DFEC01CF3F80E8D807A3
:1002C000B4F4E12E84E0A2DF8E1510F4C59801C0CD
:1002D0001F5F83E09BDF082F002309F445C042E045
:1002E00065E08C2F57DF8FE090E048DFF5CFCE013F
:1002F000B6013CD021E030E0059714F420E030E076
:10030000EB01C20FD31F10E0B29905C0CE015CDF34
:100310008FE090E033DF82E079DF992787FD9095C9
:100320008C179D0734F0C59842E062E08AE032DF26
:1003300013C081E06BDF992787FD9095C817D90717
:1003400014F0C59809C080E061DF992787FD90957A
:100350008C179D070CF0C59AC59B02C0C19801C0BF
:10036000C19A83E053DF082F8895A2CF97FB072E11
:1003700016F4009406D077FD08D00BD007FC05D00A
:100380003EF4909581959F4F0895709561957F4FAC
:100390000895AA1BBB1B51E107C0AA1FBB1FA617CC
:1003A000B70710F0A61BB70B881F991F5A95A9F71E
:0E03B00080959095BC01CD010895F894FFCF83
:00000001FF
